:040000008A11112828
:10000800FE00030E83120313A7000408A8000A08C1
:10001800A9007F08AA008A11302C8A11132883139B
:100028004430840053308A11762483018A11D929F7
:10003800780883120313A0007908A1007A08A200A7
:100048000310210D220DA3002308A6007B08A000A1
:100058007C08A1007D08A2000310210D220DA30039
:100068002308A50026080319452825082602031891
:100078004C282603FF3A2507A00019302002031C4C
:100088004C287B08F8007C08F9007D08FA00080075
:100098002508031908002608250203185B282503EC
:1000A800FF3A2607A000193020020318080006307E
:1000B800A0002008A400FA1BA417FD1B2417F91799
:1000C800FF30F805FF30F9050030FA05FC17FF305E
:1000D800FB05FF30FC050030FD0525082602031846
:1000E8009B2801300310FB0DFC0DFD0DFF3E031D89
:1000F80076280130A502250826060319962801301E
:10010800A40224080739031996287528013003101A
:10011800FA0CF90CF80CFF3E031D8B280130A000E7
:100128002008A607260825060319C4288A282608B1
:1001380025020318C42801300310F80DF90DFA0D33
:10014800FF3E031DA0280130A60225082606031934
:10015800C0280130A402240807390319C0289F28A1
:1001680001300310FD0CFC0CFB0CFF3E031DB528F1
:100178000130A0002008A50726082506031DB4287D
:10018800A41FD628FF30F806FF30F906FF30FA061C
:100198000130F807003003180130F9070030031860
:1001A8000130FA07241FE828FF30FB06FF30FC0661
:1001B800FF30FD060130FB07003003180130FC0753
:1001C800003003180130FD07A4017808FB077908FF
:1001D80003110318790A031DFC077A080311031891
:1001E8007A0A031DFD07FD1F0B29FF30FB06FF30B0
:1001F800FC06FF30FD060130FB0700300318013014
:10020800FC07003003180130FD07A401A40A7B088D
:10021800F0007C08F1007D08F2002608A000200804
:10022800F3002408A1002108F4008A11672370084C
:10023800F8007108F9007208FA0008008312031325
:100248003608B9003708BA003808BB0003103A0D61
:100258003B0DBC003C08C1004108031D3A29003091
:10026800B3000030B4000030B50008003308B9000E
:100278003408BA003508BB0003103A0D3B0DBC002A
:100288003C08C2004208031D50290030B30000306A
:10029800B4000030B50008000030BE000030BF00D8
:1002A8000030C00089304207B9003908C102360859
:1002B800B9003708BA003808BB0010300310BB0C6F
:1002C800BA0CB90CFF3E031D62293908BC003C0872
:1002D800C2003308B9003408BA003508BB00103032
:1002E8000310BB0CBA0CB90CFF3E031D7429390866
:1002F800BC003C08C2068030B9003908C205B717EF
:10030800FF30B605FF30B7050030B805B417FF3029
:10031800B305FF30B4050030B5051830B900390809
:10032800BD0001300310BE0DBF0DC00DFF3E031D03
:10033800962935083802031DA72934083702031DFA
:10034800A72933083602031CB4293308B602340837
:10035800031C340FB7023508031C350AB8023E14D3
:1003680001300310B60DB70DB80DFF3E031DB529BA
:100378000130BD02031D95293E08AB003F08AC00C3
:100388004008AD004108B9003908AE004208BA007B
:100398003A08AF008A11F922831203132B08B3001D
:1003A8002C08B4002D08B5000800831603138F012C
:1003B8008312031385018601FF308316031385001A
:1003C80086019B01C03094002130831203139400EE
:1003D800203086000B178B1791018C10831603139E
:1003E8008C148312031392010430831603139200B2
:1003F800003083120313D300FA30D4003E30D50006
:10040800051C662A053092000130CF000030D0006C
:1004180005180C2A92015308B3005408B400550873
:10042800B5004408B6004508B7004608B8008A1168
:1004380022218A11831203133308CA003408CB001F
:100448003508CC004A08AB004B08AC004C08AD009E
:100458008A116B228A11831203132C08D2002B08ED
:10046800D1000030C4000030C5000030C600103094
:100478005202003003195102031C462AFF30D100F2
:100488000F30D200083086005208303893008316A7
:100498000313141C4B2A8312031351089300831669
:1004A8000313141C532A20308312031386000730C9
:1004B80083120313C300C30B5F2A00002830831282
:1004C800031386000518042ACF01D001042A8312D9
:1004D80003132B08AF002C08B0002D08B10003103F
:1004E800300D310DB2003208B8003808031D852AD6
:1004F8000030AE000030AD000030AC000030AB0082
:1005080008002B08AF002C08B0002D08B1001730E8
:100518000310B10CB00CAF0CFF3E031D8C2A2F0842
:10052800B2003208B300AC17FF30AB05FF30AC05A2
:100538000030AD052B08B4002C08B5002D08B60016
:10054800B7018E30B802B81FC72A3808803A8F3EE4
:100558000318B72A0030AE000030AD000030AC0000
:100568000030AB00080001300310B70CB60CB50C16
:10057800B40CFF3E031DB82A0130AF002F08B8079E
:100588000319E22AB72A18303802031CDF2A003080
:10059800AE000030AD000030AC000030AB00080009
:1005A8000130AF000310B40DB50DB60DB70DAF0B8C
:1005B800D62A0130B8023808031DD42A3308031993
:1005C800F02AB409B509B609B709B40A0319B50A76
:1005D8000319B60A0319B70A3708AE003608AD0082
:1005E8003508AC003408AB000800831203132E084A
:1005F8000319032B2D082C042B04031D162B003084
:10060800AB000030AC000030AD0008000130B00095
:100618003008AE0701300310AD0CAC0CAB0CFF3E3C
:10062800031D0F2BFE302D050319312B0A2B01302A
:10063800B0003008AE070130AB07003003180130B6
:10064800AC07003003180130AD0701300310AD0CC2
:10065800AC0CAB0CFF3E031D2A2BFF302D050319F4
:10066800402B1B2B0130AE0201300310AB0DAC0D3B
:10067800AD0DFF3E031D392BAC1B462B02302E025D
:100688000318362B2E184E2BFF30AB057F30AC05E8
:10069800FF30AD050310AE0C2E08B000B101B20159
:1006A80010300310B00DB10DB20DFF3E031D552BD8
:1006B8003008AB043108AC043208AD042F08031924
:1006C8000800AD170800730803196F2B720871042E
:1006D8007004031D822B0030F0000030F100003060
:1006E800F20008000130F5007508F3070130031027
:1006F800F20CF10CF00CFF3E031D7B2BFE30720553
:1007080003199D2B762B0130F5007508F30701308E
:10071800F007003003180130F107003003180130EA
:10072800F20701300310F20CF10CF00CFF3E031D30
:10073800962BFF3072050319AC2B872B0130F3027F
:1007480001300310F00DF10DF20DFF3E031DA52B36
:10075800F11BB22B023073020318A22B7318BA2BA9
:10076800FF30F0057F30F105FF30F2050310F30C80
:100778007308F500F601F70110300310F50DF60DBA
:10078800F70DFF3E031DC12B7508F0047608F10430
:100798007708F204740803190800F2170800F21F1A
:1007A800FA2B0030F6000030F7008030F8007009AE
:1007B800F9007109FA007209FB00F90A0319FA0A2B
:1007C8000319FB0A7908F6077A0803187A0FED2B44
:1007D800EE2BF7077B0803187B0FF32BF42BF80796
:1007E8007608F0007708F1007808F200F51F212C50
:1007F8000030F6000030F7008030F8007309F90087
:100808007409FA007509FB00F90A0319FA0A0319B1
:10081800FB0A7908F6077A0803187A0F142C152CA6
:10082800F7077B0803187B0F1A2C1B2CF807760890
:10083800F3007708F4007808F5008030F20680307D
:10084800F50675087202031D080074087102031D7D
:1008580008007308700208008C1C682C4F035004B1
:10086800031D682C0030F8008030F9003F30FA0092
:100878004408FB004508FC004608FD008A111C20BE
:100888008A11780883120313C4007908C5007A080E
:10089800C600013086000030F000FA30F100443024
:1008A800F2004408F3004508F4004608F5008A11F0
:1008B800D3238A110318682C003083120313C40051
:1008C800FA30C5004430C600831203138C102A087E
:1008D800FF0029088A0028088400270E8300FE0EDE
:1008E8007E0E090064008001840A0406031900349E
:0408F8000406772C4F
:04400E0062EFFCFF62
:00000001FF
