:040000008A11112828
:10000800FE00030EF6000408F7000A08F800831241
:1000180003137F08F9008A1168288A111328F00150
:10002800F101F201F301F401F50183018A111C28A1
:10003800831603138F018312031385018601FF3092
:1000480083160313850086019B01C030940021307C
:10005800831203139400203086000B178B1791012D
:100068008C10831603138C14831203139201093026
:100078008316031392008312051C3F282430920034
:10008800051844280130920008308600710830387D
:10009800930083160313141C4D287008831203134E
:1000A800930083160313141C55282030831203135E
:1000B80086000830FA00FA0B5F28283083120313F1
:1000C8008600F001F1013F288C1C71281530F007DB
:1000D8000318F10A0030F1078C107908FF0078083E
:1000E8008A0077088400760E8300FE0E7E0E0900D3
:04400E0062EFFCFF62
:00000001FF
