:040000008A11112828
:10000800FE00030EF9000408FA000A08FB00831238
:1000180003137F08FC008A117B288A111328F0013A
:10002800F101F201F301F401F501F601F701F8011C
:10003800A001A101A201A301A401A50183018A11C4
:100048002528831603138F01831203138501860164
:10005800FF3083160313850086019B01C03094008E
:100068002130831203139400203086000B178B175E
:1000780091018C10831603138C14831203139201BD
:100088000930831603139200003083120313A6006D
:10009800FA30A7003E30A800051C502824309200F2
:1000A800051854280130920008308600740830384A
:1000B800930083160313141C5D287308831203131B
:1000C800930083160313141C65282030831203132E
:1000D8008600073083120313A900A90B71280000BA
:1000E8002830831203138600F301F40150288C1C76
:1000F8008728013086001530F3070318F40A00300A
:10010800F40786018C107C08FF007B088A007A08B7
:0C0118008400790E8300FE0E7E0E0900AC
:04400E0062EFFCFF62
:00000001FF
